:04000000FEEF7FF0A0
:0B1000000002040301000100000000DA
:10100C00000E156E000E166E000E176E000E186E8A
:10101C003701E0B714EF08F016EF08F09AEF08F07C
:10102C0020EE01F01350D9261450DA226F0078FF0D
:10103C0001F06F0078FF02F06F0078FF03F06F0093
:10104C0078FF04F060004FF0D9FF600053F0DAFF36
:10105C00DF50056E150E066E000E076E160E086E2E
:10106C00000E096E170E0A6E000E0B6E180E0C6E2B
:10107C00000E0D6EF3EC0BF0600057F0E3F7600020
:10108C005BF0E4F760005FF0E1F7600063F0E2F71B
:10109C0020EE05F01350D9261450DA22DF50370118
:1010AC00E56F20EE06F01350D9261450DA22DF50EB
:1010BC00E66F20EE07F01350D9261450DA22DF50D9
:1010CC00E76F20EE08F01350D9261450DA22DF50C7
:1010DC00E86F20EE09F01350D9261450DA22DF50B5
:1010EC00E96F20EE0AF01350D9261450DA22DF50A3
:1010FC00EA6F20EE0BF01350D9261450DA22DF5091
:10110C00EB6F20EE0CF01350D9261450DA22DF507E
:10111C00EC6F20EE0DF01350D9261450DA22DF506C
:10112C00ED6FE087B0EF09F0D0B79FEF08F0A1EFBB
:10113C0008F025EF09F020EE01F01350D9261450D9
:10114C00DA226F0078FF01F06F0078FF02F06F0079
:10115C0078FF03F06F0078FF04F060004FF0D9FFC8
:10116C00600053F0DAFFDF50056E150E066E000EB0
:10117C00076E160E086E000E096E170E0A6E000E24
:10118C000B6E180E0C6E000E0D6EF3EC0BF0600077
:10119C0057F0D3F760005BF0D4F760005FF0D1F745
:1011AC00600063F0D2F720EE05F01350D9261450EE
:1011BC00DA22DF503701D56F20EE06F01350D92616
:1011CC001450DA22DF50D66F20EE07F01350D926D8
:1011DC001450DA22DF50D76F20EE08F01350D926C6
:1011EC001450DA22DF50D86F20EE09F01350D926B4
:1011FC001450DA22DF50D96F20EE0AF01350D926A2
:10120C001450DA22DF50DA6F20EE0BF01350D9268F
:10121C001450DA22DF50DB6F20EE0CF01350D9267D
:10122C001450DA22DF50DC6F20EE0DF01350D9266B
:10123C001450DA22DF50DD6FD08798EF08F0C0B77A
:10124C002AEF09F02CEF09F0B0EF09F020EE01F0D5
:10125C001350D9261450DA226F0078FF01F06F007A
:10126C0078FF02F06F0078FF03F06F0078FF04F056
:10127C0060004FF0D9FF600053F0DAFFDF50056ECD
:10128C00150E066E000E076E160E086E000E096E19
:10129C00170E0A6E000E0B6E180E0C6E000E0D6EF5
:1012AC00F3EC0BF0600057F0C3F760005BF0C4F791
:1012BC0060005FF0C1F7600063F0C2F720EE05F04C
:1012CC001350D9261450DA22DF503701C56F20EEA7
:1012DC0006F01350D9261450DA22DF50C66F20EED8
:1012EC0007F01350D9261450DA22DF50C76F20EEC6
:1012FC0008F01350D9261450DA22DF50C86F20EEB4
:10130C0009F01350D9261450DA22DF50C96F20EEA1
:10131C000AF01350D9261450DA22DF50CA6F20EE8F
:10132C000BF01350D9261450DA22DF50CB6F20EE7D
:10133C000CF01350D9261450DA22DF50CC6F20EE6B
:10134C000DF01350D9261450DA22DF50CD6FC08720
:10135C0098EF08F01200000E166E80AEB8EF09F090
:10136C00BAEF09F05FEF0AF082A6BFEF09F0C1EF08
:10137C0009F0E9EF09F0600053F0D9FF600057F075
:10138C00DAFF020EDF6E6F0010FE01F06F0004FE3C
:10139C0002F06F0008FE03F08350BFEC0CF020EE5F
:1013AC0001F01450D9261550DA22600007F0DEFF48
:1013BC0060000BF0DEFF60000FF0DEFF600013F04A
:1013CC00DEFF09EF0AF0600053F0D9FF600057F020
:1013DC00DAFF010EDF6E6F0008FE01F0815066EC43
:1013EC000EF020EE01F01450D9261550DA226000D0
:1013FC0007F0DEFF60000BF0DEFF60000FF0DEFF99
:10140C00600013F0DEFF20EE05F01450D9261550C5
:10141C00DA226F0017FEDFFF20EE06F01450D926FB
:10142C001550DA226F001BFEDFFF20EE07F0145080
:10143C00D9261550DA226F001FFEDFFF20EE08F0D0
:10144C001450D9261550DA226F0023FEDFFF20EE50
:10145C0009F01450D9261550DA226F0027FEDFFF51
:10146C0020EE0AF01450D9261550DA226F002BFE0C
:10147C00DFFF20EE0BF01450D9261550DA226F0046
:10148C002FFEDFFF20EE0CF01450D9261550DA2277
:10149C006F0033FEDFFF20EE0DF01450D9261550EF
:1014AC00DA226F0037FEDFFF809E010E166E0BEF07
:1014BC000BF03701F0AF65EF0AF067EF0AF00BEFB6
:1014CC000BF0F2A76CEF0AF06EEF0AF096EF0AF051
:1014DC00600053F0D9FF600057F0DAFF020EDF6EA8
:1014EC006D00D0FF01F06D00C4FF02F06D00C8FF6D
:1014FC0003F0F351BFEC0CF020EE01F01450D926A0
:10150C001550DA22600007F0DEFF60000BF0DEFF02
:10151C0060000FF0DEFF600013F0DEFFB6EF0AF0A4
:10152C00600053F0D9FF600057F0DAFF010EDF6E58
:10153C006D00C8FF01F0F15166EC0EF020EE01F0E9
:10154C001450D9261550DA22600007F0DEFF600037
:10155C000BF0DEFF60000FF0DEFF600013F0DEFF2B
:10156C0020EE05F01450D9261550DA226D00D7FF65
:10157C00DFFF20EE06F01450D9261550DA226D004C
:10158C00DBFFDFFF20EE07F01450D9261550DA22CE
:10159C006D00DFFFDFFF20EE08F01450D926155048
:1015AC00DA226D00E3FFDFFF20EE09F01450D9269C
:1015BC001550DA226D00E7FFDFFF20EE0AF0145021
:1015CC00D9261550DA226D00EBFFDFFF20EE0BF071
:1015DC001450D9261550DA226D00EFFFDFFF20EEF4
:1015EC000CF01450D9261550DA226D00F3FFDFFFF2
:1015FC0020EE0DF01450D9261550DA226D00F7FFAD
:10160C00DFFF3701F09F5BEF0AF016501200DFECA2
:10161C000EF0000E1B6EC482C29A1C0E146E000ECD
:10162C00156EB1EC09F00009D8B41FEF0BF021EFE7
:10163C000BF013EF0BF0BC84150E1A6E4B0E196EDB
:10164C00BE0EE82EFED7192EFCD71A2EFAD700D0D4
:10165C00BC94150E1A6E4B0E196EBE0EE82EFED7EC
:10166C00192EFCD71A2EFAD700D0010E2A6E010EB5
:10167C002B6E000E2C6E000E2D6E000E2E6E010EBB
:10168C002F6E330E306E2A0E136E000E146E06EC97
:10169C0008F03901A5A555EF0BF057EF0BF04FEF04
:1016AC000BF0A5A75CEF0BF05EEF0BF04FEF0BF020
:1016BC00A5A963EF0BF065EF0BF04FEF0BF0A5A5B1
:1016CC006AEF0BF06CEF0BF06FEF0BF0A59581EF61
:1016DC000BF0A5A774EF0BF076EF0BF079EF0BF096
:1016EC00A59781EF0BF0A5A97EEF0BF080EF0BF027
:1016FC0081EF0BF0A599290E1A6E960E196E7F0EBE
:10170C00E82EFED7192EFCD71A2EFAD700F0000EB1
:10171C00CBEC0DF03D0114BF96EF0BF098EF0BF0F6
:10172C009BEF0BF0BC94C2EF0BF014AFA0EF0BF0DF
:10173C00A2EF0BF0C2EF0BF0BC84150E1A6E4B0E21
:10174C00196EBE0EE82EFED7192EFCD71A2EFAD71C
:10175C0000D0BC94150E1A6E4B0E196EBE0EE82EF0
:10176C00FED7192EFCD71A2EFAD700D0C2EF0BF0E9
:10177C00130EB4EC0EF01B6E550E1B18D8A4C9EF4B
:10178C000BF0CBEF0BF0BEEF0BF0BC84150E1A6E0A
:10179C004B0E196EBE0EE82EFED7192EFCD71A2E44
:1017AC00FAD700D0BC94150E1A6E4B0E196EBE0EE5
:1017BC00E82EFED7192EFCD71A2EFAD700D0550ECC
:1017CC001B18D8A4ECEF0BF0EEEF0BF013EF0BF0B3
:1017DC00BC8413EF0BF0FEEF7FF0020E0518D8A4BB
:1017EC00FAEF0BF0FCEF0BF08AEF0CF0600023F03B
:1017FC00D9FF600027F0DAFF600007F0DFFF01C0BF
:10180C000EF002C00FF003C010F004C011F00FC0B6
:10181C000EF010C00FF011C010F0116A0EC001F0E4
:10182C000FC002F010C003F011C004F060001BF0F8
:10183C00D9FF60001FF0DAFF600007F0DFFF01C086
:10184C000EF002C00FF003C010F004C011F00FC076
:10185C000EF010C00FF011C010F0116A0EC001F0A4
:10186C000FC002F010C003F011C004F00150030BC4
:10187C00126E01C00EF002C00FF003C010F004C0D5
:10188C0011F0030ED8900E360F3610361136E82EA6
:10189C0048EF0CF00EC001F00FC002F010C003F0C6
:1018AC0011C004F00150E00B1224126E1250080FFC
:1018BC00126E1250EB0B600033F0D9FF600037F062
:1018CC00DAFFDF6E01C00EF002C00FF003C010F0A3
:1018DC0004C011F00FC00EF010C00FF011C010F0CA
:1018EC00116A0EC001F00FC002F010C003F011C05D
:1018FC0004F060002BF0D9FF60002FF0DAFF6000DD
:10190C0007F0DFFFBEEF0CF060001BF0D9FF6000AA
:10191C001FF0DAFF000EDF6E600023F0D9FF6000CD
:10192C0027F0DAFF000EDF6E01C00EF002C00FF0E0
:10193C0003C010F004C011F0050ED8900E360F360F
:10194C0010361136E82EA3EF0CF00EC001F00FC0CC
:10195C0002F010C003F011C004F0600033F0D9FFA6
:10196C00600037F0DAFF600007F0DFFF68EF0CF083
:10197C001200096E000E106E000E116E000E126E2B
:10198C00000E136E0350030B0E6E0338E842070B68
:10199C000F6E0250056E066AD89005360636D89042
:1019AC0005360636D8900536063605C010F006C04A
:1019BC0011F0000E11BEFF0E126E136E0F5010249C
:1019CC00106E000E1120116E000E1220126E000E01
:1019DC001320136E10C005F011C006F012C007F0F2
:1019EC0013C008F0020ED8900536063607360836B6
:1019FC00E82EF9EF0CF005C010F006C011F007C08E
:101A0C0012F008C013F00E501024106E000E1120AE
:101A1C00116E000E1220126E000E1320136E10C0E9
:101A2C0006F011C007F012C008F0056A05C010F0EE
:101A3C0006C011F007C012F008C013F009501024B2
:101A4C00106E000E1120116E000E1220126E000E80
:101A5C001320136E10C006F011C007F012C008F06E
:101A6C00056A05C010F006C011F007C012F008C0DE
:101A7C0013F001501024106E000E1120116E000E88
:101A8C001220126E000E1320136E10C00AF011C03B
:101A9C000BF012C00CF013C00DF00AC001F00BC01B
:101AAC0002F00CC003F00DC004F01200800E8F6E1B
:101ABC008E50E00B800AD8A466EF0DF068EF0DF0A5
:101ACC005EEF0DF0000E916E000E3701006F000EF0
:101ADC00BA6F000EBB6F000EB86F000EB96F000E20
:101AEC00BE6F000EBF6F000EBC6F000EBD6F000E00
:101AFC00A26F000EA36F000EA06F000EA16F000E60
:101B0C00A66F000EA76F000EA46F000EA56F000E3F
:101B1C00AA6F000EAB6F000EA86F000EA96F000E1F
:101B2C00AE6F000EAF6F000EAC6F000EAD6F000EFF
:101B3C00B26F000EB36F000EB06F000EB16F000EDF
:101B4C00B66F000EB76F000EB46F000EB56F000EBF
:101B5C00036F980E046F810E056F3901A59D958D4D
:101B6C00958595879589A585A587A589000E8F6E86
:101B7C006F0038FE01F0E00E0116D8A4C8EF0DF08E
:101B8C00CAEF0DF0BEEF0DF01200026E3D0114BF56
:101B9C00D2EF0DF0D4EF0DF029EF0EF00250050D41
:101BAC00010EF324F66E100EF420F76E08006F0091
:101BBC00D7FF14FD0250050D010EF326000EF42282
:101BCC00010EF324F66E100EF420F76E08006F0071
:101BDC00D7FF15FD0250050D020EF326000EF42260
:101BEC00010EF324F66E100EF420F76E08006F0051
:101BFC00D7FF16FD0250050D030EF326000EF4223E
:101C0C00010EF324F66E100EF420F76E08006F0030
:101C1C00D7FF19FD0250050D040EF326000EF42219
:101C2C00010EF324F66E100EF420F76E08006F0010
:101C3C00D4FF01F0014601460146C4500118F70BD0
:101C4C000118C46E148F1200200EBA6EBA8A000EE0
:101C5C00BB6E000EBC6E000EC26EC29AFB0EC36E43
:101C6C00C394D70EC46EC494000E3A01606F000E7C
:101C7C00506F000E406F000E816F000E516F000E02
:101C8C00416F000E616F000E426F000E526F000E1E
:101C9C00626F436953696369446954696469080EE6
:101CAC00846F200E056F130EE06F1E0E136F330E34
:101CBC000A6F0B0EED6F1F0E156F140EE16F1200F5
:101CCC00076E0750056E066AD89005360636D89012
:101CDC0005360636D8900536063605C00CF006C01B
:101CEC000DF0000E0DBEFF0E0E6E0F6E01C005F056
:101CFC00050E066ED8900532062E80EF0EF00550BC
:101D0C000C240C6E000E0D200D6E000E0E200E6EAF
:101D1C00000E0F200F6E0CC008F00DC009F00EC0A5
:101D2C000AF00FC00BF008C001F009C002F00AC0A5
:101D3C0003F00BC004F01200000E3901C06F000E4E
:101D4C00C16F000EC26F000EC36F000EC46F000E89
:101D5C00C56F000EC66F000EC76F1200016E010E2C
:101D6C003D01126F600007F011FD3901A2A9C1EF0E
:101D7C000EF0C3EF0EF0BBEF0EF03D011051120050
:101D8C00020E3D01146F040E156F030E166F000E3C
:101D9C001C6F010E196FC4961200600E3901D96FB9
:101DAC00000EDB6F000EDD6F050EDF6F000EDE6FB9
:101DBC001200A2EC0EF02AEC0EF0D3EC0EF0C6ECF6
:101DCC000EF05CEC0DF01200000EF86E100EF76EBB
:061DDC0000010DEF0BF009
:04FFFC00EAEF0EF02A
:020000040020DA
:10000000FFFFFFFFFFFFFFFFFFFFFFFFFFFFFFFF00
:020000040030CA
:0A000000ECFFF7FF9FFFFFFFFFFF7B
:00000001FF
