:040000000DEF00F010
:04000800AAEF0EF05D
:06001800FF00B4EF0EF042
:10100000000004030101004004000103000000008F
:10101000000E156E000E166E000E176E000E186E86
:101020003701E0B716EF08F018EF08F09CEF08F072
:1010300020EE01F01350D9261450DA226F0078FF09
:1010400001F06F0078FF02F06F0078FF03F06F008F
:1010500078FF04F060004FF0D9FF600053F0DAFF32
:10106000DF50056E150E066E000E076E160E086E2A
:10107000000E096E170E0A6E000E0B6E180E0C6E27
:10108000000E0D6E0FEC0BF0600057F0E3F7600000
:101090005BF0E4F760005FF0E1F7600063F0E2F717
:1010A00020EE05F01350D9261450DA22DF50370114
:1010B000E56F20EE06F01350D9261450DA22DF50E7
:1010C000E66F20EE07F01350D9261450DA22DF50D5
:1010D000E76F20EE08F01350D9261450DA22DF50C3
:1010E000E86F20EE09F01350D9261450DA22DF50B1
:1010F000E96F20EE0AF01350D9261450DA22DF509F
:10110000EA6F20EE0BF01350D9261450DA22DF508C
:10111000EB6F20EE0CF01350D9261450DA22DF507A
:10112000EC6F20EE0DF01350D9261450DA22DF5068
:10113000ED6FE087B2EF09F0D0B7A1EF08F0A3EFB1
:1011400008F027EF09F020EE01F01350D9261450D3
:10115000DA226F0078FF01F06F0078FF02F06F0075
:1011600078FF03F06F0078FF04F060004FF0D9FFC4
:10117000600053F0DAFFDF50056E150E066E000EAC
:10118000076E160E086E000E096E170E0A6E000E20
:101190000B6E180E0C6E000E0D6E0FEC0BF0600057
:1011A00057F0D3F760005BF0D4F760005FF0D1F741
:1011B000600063F0D2F720EE05F01350D9261450EA
:1011C000DA22DF503701D56F20EE06F01350D92612
:1011D0001450DA22DF50D66F20EE07F01350D926D4
:1011E0001450DA22DF50D76F20EE08F01350D926C2
:1011F0001450DA22DF50D86F20EE09F01350D926B0
:101200001450DA22DF50D96F20EE0AF01350D9269D
:101210001450DA22DF50DA6F20EE0BF01350D9268B
:101220001450DA22DF50DB6F20EE0CF01350D92679
:101230001450DA22DF50DC6F20EE0DF01350D92667
:101240001450DA22DF50DD6FD0879AEF08F0C0B774
:101250002CEF09F02EEF09F0B2EF09F020EE01F0CB
:101260001350D9261450DA226F0078FF01F06F0076
:1012700078FF02F06F0078FF03F06F0078FF04F052
:1012800060004FF0D9FF600053F0DAFFDF50056EC9
:10129000150E066E000E076E160E086E000E096E15
:1012A000170E0A6E000E0B6E180E0C6E000E0D6EF1
:1012B0000FEC0BF0600057F0C3F760005BF0C4F771
:1012C00060005FF0C1F7600063F0C2F720EE05F048
:1012D0001350D9261450DA22DF503701C56F20EEA3
:1012E00006F01350D9261450DA22DF50C66F20EED4
:1012F00007F01350D9261450DA22DF50C76F20EEC2
:1013000008F01350D9261450DA22DF50C86F20EEAF
:1013100009F01350D9261450DA22DF50C96F20EE9D
:101320000AF01350D9261450DA22DF50CA6F20EE8B
:101330000BF01350D9261450DA22DF50CB6F20EE79
:101340000CF01350D9261450DA22DF50CC6F20EE67
:101350000DF01350D9261450DA22DF50CD6FC0871C
:101360009AEF08F01200000E166E80AEBAEF09F088
:10137000BCEF09F061EF0AF082A6C1EF09F0C3EFFC
:1013800009F0EBEF09F0600053F0D9FF600057F06F
:10139000DAFF020EDF6E6F0010FE01F06F0004FE38
:1013A00002F06F0008FE03F08350DBEC0BF020EE40
:1013B00001F01450D9261550DA22600007F0DEFF44
:1013C00060000BF0DEFF60000FF0DEFF600013F046
:1013D000DEFF0BEF0AF0600053F0D9FF600057F01A
:1013E000DAFF010EDF6E6F0008FE01F08150E5ECC0
:1013F0000DF020EE01F01450D9261550DA226000CD
:1014000007F0DEFF60000BF0DEFF60000FF0DEFF94
:10141000600013F0DEFF20EE05F01450D9261550C1
:10142000DA226F0017FEDFFF20EE06F01450D926F7
:101430001550DA226F001BFEDFFF20EE07F014507C
:10144000D9261550DA226F001FFEDFFF20EE08F0CC
:101450001450D9261550DA226F0023FEDFFF20EE4C
:1014600009F01450D9261550DA226F0027FEDFFF4D
:1014700020EE0AF01450D9261550DA226F002BFE08
:10148000DFFF20EE0BF01450D9261550DA226F0042
:101490002FFEDFFF20EE0CF01450D9261550DA2273
:1014A0006F0033FEDFFF20EE0DF01450D9261550EB
:1014B000DA226F0037FEDFFF809E010E166E0DEF01
:1014C0000BF03701F0AF67EF0AF069EF0AF00DEFAC
:1014D0000BF0F2A76EEF0AF070EF0AF098EF0AF047
:1014E000600053F0D9FF600057F0DAFF020EDF6EA4
:1014F0006D00D0FF01F06D00C4FF02F06D00C8FF69
:1015000003F0F351DBEC0BF020EE01F01450D92680
:101510001550DA22600007F0DEFF60000BF0DEFFFE
:1015200060000FF0DEFF600013F0DEFFB8EF0AF09E
:10153000600053F0D9FF600057F0DAFF010EDF6E54
:101540006D00C8FF01F0F151E5EC0DF020EE01F067
:101550001450D9261550DA22600007F0DEFF600033
:101560000BF0DEFF60000FF0DEFF600013F0DEFF27
:1015700020EE05F01450D9261550DA226D00D7FF61
:10158000DFFF20EE06F01450D9261550DA226D0048
:10159000DBFFDFFF20EE07F01450D9261550DA22CA
:1015A0006D00DFFFDFFF20EE08F01450D926155044
:1015B000DA226D00E3FFDFFF20EE09F01450D92698
:1015C0001550DA226D00E7FFDFFF20EE0AF014501D
:1015D000D9261550DA226D00EBFFDFFF20EE0BF06D
:1015E0001450D9261550DA226D00EFFFDFFF20EEF0
:1015F0000CF01450D9261550DA226D00F3FFDFFFEE
:1016000020EE0DF01450D9261550DA226D00F7FFA8
:10161000DFFF3701F09F5DEF0AF016501200020E57
:101620000518D8A416EF0BF018EF0BF0A6EF0BF08F
:10163000600023F0D9FF600027F0DAFF600007F0B8
:10164000DFFF01C00EF002C00FF003C010F004C0B5
:1016500011F00FC00EF010C00FF011C010F0116AA1
:101660000EC001F00FC002F010C003F011C004F072
:1016700060001BF0D9FF60001FF0DAFF600007F088
:10168000DFFF01C00EF002C00FF003C010F004C075
:1016900011F00FC00EF010C00FF011C010F0116A61
:1016A0000EC001F00FC002F010C003F011C004F032
:1016B0000150030B126E01C00EF002C00FF003C008
:1016C00010F004C011F0030ED8900E360F3610360D
:1016D0001136E82E64EF0BF00EC001F00FC002F0DF
:1016E00010C003F011C004F00150E00B1224126E80
:1016F0001250080F126E1250EB0B600033F0D9FF3E
:10170000600037F0DAFFDF6E01C00EF002C00FF0AC
:1017100003C010F004C011F00FC00EF010C00FF0A5
:1017200011C010F0116A0EC001F00FC002F010C01D
:1017300003F011C004F060002BF0D9FF60002FF01F
:10174000DAFF600007F0DFFFDAEF0BF060001BF05C
:10175000D9FF60001FF0DAFF000EDF6E600023F09B
:10176000D9FF600027F0DAFF000EDF6E01C00EF037
:1017700002C00FF003C010F004C011F0050ED890A5
:101780000E360F3610361136E82EBFEF0BF00EC0B6
:1017900001F00FC002F010C003F011C004F06000AF
:1017A00033F0D9FF600037F0DAFF600007F0DFFFA9
:1017B00084EF0BF01200096E000E106E000E116E19
:1017C000000E126E000E136E0350030B0E6E0338E4
:1017D000E842070B0F6E0250056E066AD890053678
:1017E0000636D89005360636D8900536063605C03A
:1017F00010F006C011F0000E11BEFF0E126E136E37
:101800000F501024106E000E1120116E000E1220C9
:10181000126E000E1320136E10C005F011C006F0FA
:1018200012C007F013C008F0020ED8900536063635
:1018300007360836E82E15EF0CF005C010F006C08C
:1018400011F007C012F008C013F00E501024106EF3
:10185000000E1120116E000E1220126E000E1320C9
:10186000136E10C006F011C007F012C008F0056A30
:1018700005C010F006C011F007C012F008C013F048
:1018800009501024106E000E1120116E000E12204F
:10189000126E000E1320136E10C006F011C007F078
:1018A00012C008F0056A05C010F006C011F007C0AC
:1018B00012F008C013F001501024106E000E112019
:1018C000116E000E1220126E000E1320136E10C047
:1018D0000AF011C00BF012C00CF013C00DF00AC0DA
:1018E00001F00BC002F00CC003F00DC004F01200B8
:1018F00091EC0EF0000E016E000E026EBDEC0EF0CB
:101900003D011B85010E1C6E030E1D6E000E1E6E2A
:10191000000E1F6E000E206E010E216E330E226E21
:10192000000E1B6E3901A595A597A5991C0E136E87
:10193000000E146E08EC08F02A0E146E000E156EE0
:10194000B3EC09F00009D8B4A8EF0CF0AAEF0CF042
:101950009CEF0CF0BC84150E1A6E4B0E196EBE0E69
:10196000E82EFED7192EFCD71A2EFAD700D0BC9439
:10197000150E1A6E4B0E196EBE0EE82EFED7192EDE
:10198000FCD71A2EFAD700D0330E3018D8A4CBEFDC
:101990000CF0CDEF0CF09CEF0CF0000E77EC0DF09E
:1019A000BC84150E1A6E4B0E196EBE0EE82EFED7B5
:1019B000192EFCD71A2EFAD700D0BC94150E1A6E29
:1019C0004B0E196EBE0EE82EFED7192EFCD71A2E1E
:1019D000FAD700D0F0EF0CF0550E7FEC0EF01B6E36
:1019E0001B50D8B4F6EF0CF0F8EF0CF0ECEF0CF065
:1019F000130E1B18D8A4FFEF0CF001EF0DF004EF4D
:101A00000DF0BC849CEF0CF09CEF0CF00DEF00F09F
:101A1000800E8F6E8E50E00B800AD8A412EF0DF06E
:101A200014EF0DF00AEF0DF0000E916E000E37016D
:101A3000006F000EBA6F000EBB6F000EB86F000E85
:101A4000B96F000EBE6F000EBF6F000EBC6F000EB0
:101A5000BD6F000EA26F000EA36F000EA06F000EF0
:101A6000A16F000EA66F000EA76F000EA46F000EF0
:101A7000A56F000EAA6F000EAB6F000EA86F000ED0
:101A8000A96F000EAE6F000EAF6F000EAC6F000EB0
:101A9000AD6F000EB26F000EB36F000EB06F000E90
:101AA000B16F000EB66F000EB76F000EB46F000E70
:101AB000B56F000E036F980E046F810E056F39012C
:101AC000A59D958D958595879589A585A587A589DA
:101AD000000E8F6E6F0038FE01F0E00E0116D8A4E4
:101AE00074EF0DF076EF0DF06AEF0DF01200026E5C
:101AF0003D0114BF7EEF0DF080EF0DF0E4EF0DF02F
:101B00000250050D010EF324F66E100EF420F76E50
:101B1000F86A000EF82208006F00D7FF14FD02508B
:101B2000050D010EF326000EF422010EF324F66ECD
:101B3000100EF420F76EF86A000EF82208006F000D
:101B4000D7FF15FD0250050D020EF326000EF422FC
:101B5000010EF324F66E100EF420F76EF86A000EF4
:101B6000F82208006F00D7FF16FD0250050D030E86
:101B7000F326000EF422010EF324F66E100EF4206C
:101B8000F76EF86A000EF82208006F00D7FF19FD03
:101B90000250050D040EF326000EF422010EF3246C
:101BA000F66E100EF420F76EF86A000EF8220800A8
:101BB0006F00D4FF01F0014601460146C4500118F0
:101BC000F70B0118C46E148F1200076E0750056ED4
:101BD000066AD89005360636D89005360636D8906F
:101BE0000536063605C00CF006C00DF0000E0DBE21
:101BF000FF0E0E6E0F6E01C005F0050E066ED8903A
:101C00000532062EFFEF0DF005500C240C6E000E71
:101C10000D200D6E000E0E200E6E000E0F200F6EAA
:101C20000CC008F00DC009F00EC00AF00FC00BF098
:101C300008C001F009C002F00AC003F00BC004F0B4
:101C40001200200EBA6E000EBB6E000EBC6EC26893
:101C5000FB0EC36EDF0EC46EC494C30E3A01606FF8
:101C60006095F30E506FDF0E406F000E816F000E17
:101C7000516F000E416F000E616F000E426F000E3B
:101C8000526F000E626F4369536963694469546916
:101C90006469080E846F130EE06F050EE26F330E59
:101CA0000A6F0B0EED6F1F0E156F140EE16F120011
:101CB000000E3D01146F040E156F030E166F000E1B
:101CC0001C6F010E196FC48639019289000E016ED6
:101CD000000E026EBDEC0EF01200000E3901C06F56
:101CE000000EC16F000EC26F000EC36F000EC46FF6
:101CF000000EC56F000EC66F000EC76F1200016E9A
:101D0000010E3D01126F600007F011FD3901A2A91B
:101D10008CEF0EF08EEF0EF086EF0EF03D011051BD
:101D2000120021EC0EF0C2EC0EF06DEC0EF09EEC09
:101D30000EF058EC0EF008EC0DF01200600E3901B8
:101D4000D96F000EDB6F000EDD6F050EDF6F000E2A
:101D5000DE6F1200390192A9B0EF0EF0B2EF0EF073
:101D6000B3EF0EF0A2511100080ED56E000ED66E24
:101D7000000ED76E000178EF0CF001C038F002C001
:0C1D800039F01200D29A39019289120049
:020000040020DA
:10000000FFFFFFFFFFFFFFFFFFFFFFFFFFFFFFFF00
:020000040030CA
:0A000000ECFFF7FF9FFFFFFFFFFF7B
:00000001FF
